:020000040800F2
:1000000000280020E5040008C1040008C30400081B
:10001000C5040008C7040008C90400080000000067
:10002000000000000000000000000000CB040008F9
:10003000CD04000800000000CF040008D10400082F
:100040002D0500082D0500082D0500082D050008C8
:100050002D0500082D0500082D0500082D050008B8
:100060002D0500082D0500082D0500082D050008A8
:100070002D0500082D0500082D0500082D05000898
:100080002D0500082D0500082D0500082D05000888
:100090002D0500082D0500082D0500082D05000878
:1000A0002D0500082D0500082D0500082D05000868
:1000B0002D0500082D050008000000002D05000892
:1000C0002D05000800000000000000002D050008BC
:1000D00000000000D50400082D0500080000000005
:1000E0002D0500082D0500082D0500080000000062
:1000F0000000000000000000000000000000000000
:0C01000000000000000000005FF808F1A3
:10010C0010B5054C237833B9044B13B10448AFF345
:10011C0000800123237010BD10000020000000009F
:10012C001418000808B5034B1BB103490348AFF37F
:10013C00008008BD00000000140000201418000806
:10014C00034613F8012B002AFBD1181A013870470B
:10015C00102270B588B00DEB0200002101F028FBD5
:10016C001C4B1D4E9A69304642F010029A619A69F6
:10017C004FF4005102F010020192019A9A69012584
:10018C0042F020029A619A69002402F02002029245
:10019C00029A9A6942F004029A619B69002203F068
:1001AC0004030393039B00F0EBFC4FF40053CDE9E5
:1001BC0004350223304604A9CDE9064300F00CFCBB
:1001CC00064804A9CDE90454069400F005FC08B0D7
:1001DC0070BD00BF0010024000100140000801403B
:1001EC00002310B586B00446019300F0F7FA88B9E5
:1001FC000823CDE9020001A90DEB0300049405933B
:10020C0000F096FB044600F0FBFAB4FA84F04009C7
:10021C0006B010BD0124F8E72DE9F04105460F4664
:10022C001646984600F0DAFA044610B10020BDE8F4
:10023C00F0814544B44203D100F0E2FA0120F6E724
:10024C0029460023022057F8242000F00DFB04352A
:10025C0010B100F0D5FAE9E70134EBE72DE9F041F4
:10026C000D460446FFF7BCFF2846FFF769FF2946F9
:10027C0082B24FF0FF331E4801F043F800251D4EAB
:10028C001B4F4FF4027200211A4801F091FA4FF003
:10029C00FF334FF402723846164901F080F896F895
:1002AC000732AF2B18D12B46802213492046FFF77B
:1002BC00B3FFD4F8048000F071FC00F033F94FF078
:1002CC00E02300221A615A619A61C3F8084D236831
:1002DC0083F30888C047D4E7002BD2D12B46802269
:1002EC0020460549FFF798FF05F50075C9E700BFE3
:1002FC00300400202C0000202F00002008B572B61E
:10030C00044C20464FF4005100F03FFC642000F0F8
:10031C0061F9F6E700100140202210B590B00021E1
:10032C000DEB020001F044FA0021142201A801F0A7
:10033C003FFA022401224FF4803306A8CDE90623AC
:10034C00CDE90D430A9200F095FC014608B1FFF788
:10035C00D5FF0F23CDE90300059001A8CDE90134A9
:10036C0000F04AFE0028F2D110B010BD08B54FF4D1
:10037C00E1330948094AC0E9002300230C22C0E9F3
:10038C000233C0E905230361C36100F08BFF08B1A0
:10039C00FFF7B4FF08BD00BF300400200038014057
:1003AC0008B500F0F3F8FFF7B7FFFFF7D1FEFFF742
:1003BC00DDFF084D084C0121284600F0DBFB2070C6
:1003CC0018B906490648FFF749FF0128F3D105493A
:1003DC00F8E700BF000801402C0400202C1800088E
:1003EC0000400008341800080E4B82B09A6942F0A5
:1003FC0001029A619A6902F001020092009ADA698C
:10040C0042F08052DA61DB69074A03F080530193B2
:10041C00019B536823F0E06343F08063536002B0A8
:10042C00704700BF001002400000014010B50446A8
:10043C0086B01022002102A801F0BAF922681B4BE9
:10044C009A4230D103F558439A69194842F48042D4
:10045C009A619A6902A902F480420092009A9A6900
:10046C00002442F004029A619B694FF4905203F00D
:10047C0004030193019B0223CDE90223032305937B
:10048C0000F0AAFA4FF44063094802A9CDE90234FE
:10049C00049400F0A1FA25202246214600F0BEF873
:1004AC00252000F0EBF806B010BD00BF003801406D
:1004BC0000080140FEE7FEE7FEE7FEE7FEE77047B7
:1004CC007047704700F074B8014801F027B800BFBE
:1004DC003004002070470000FFF7FCFF0B480C496C
:1004EC000C4A002302E0D458C4500433C4188C4284
:1004FC00F9D3094A094C002301E013600432A242EB
:10050C00FBD301F05DF9FFF74BFF704700000020B3
:10051C000C0000207818000810000020A004002017
:10052C00FEE7704710B54FF0FF320024044B1A6100
:10053C001C61DA60DC60FFF7F4FF204610BD00BFE1
:10054C000010024038B50E4B05461A784FF47A73FA
:10055C00B3FBF2F30B4A1068B0FBF3F000F09CF81D
:10056C00044658B90F2D09D8024629464FF0FF30E2
:10057C0000F054F82046044B1D6038BD0120FCE708
:10058C00040000200000002008000020074A08B5E5
:10059C001368032043F01003136000F02DF80F20B4
:1005AC00FFF7D0FFFFF720FF002008BD002002401E
:1005BC00034A044B11681B780B441360704700BF4F
:1005CC007804002004000020014B1868704700BF1D
:1005DC007804002038B50446FFF7F6FF0546631C87
:1005EC001EBF044B1B78E418FFF7EEFF431BA3421E
:1005FC00FAD338BD0400002007490302CA6803F48B
:10060C00E06322F4E0621204120C134343F0BF6364
:10061C0043F40033CB60704700ED00E0154B30B570
:10062C00DC68C4F30224C4F10703251D042B28BF86
:10063C000423062D4FF0FF3594BF0024033C05FA2C
:10064C0003F321EA0303A54022EA0502A340002894
:10065C0043EA0203ACBF00F16040074A4FEA0313C0
:10066C00DBB2ABBF00F5614000F00F0080F8003347
:10067C00135430BD00ED00E014ED00E0002807DB62
:10068C0001234109034A00F01F00834042F8213046
:10069C00704700BF00E100E00138B0F1807F0BD261
:1006AC004FF0E023F021054A586182F82310002016
:1006BC00072298611A6170470120704700ED00E035
:1006CC0090F821200346022A06D0042282630120DE
:1006DC00002283F8202070470268C06B116821F05B
:1006EC000E011160116821F00101116001211A6CD9
:1006FC0001FA02F24260002083F82110E8E70000C2
:10070C0008B590F82130022B03D004238363012019
:10071C0008BD03681A6822F00E021A601A6822F0EB
:10072C0001021A60174A93421FD0143293421ED012
:10073C00143293421DD0143293421DD01432934282
:10074C001DD01432934214BF4FF080734FF48013BA
:10075C000D4A5360012380F82130002380F82030AB
:10076C00436B03B198470020D2E70123F0E7102335
:10077C00EEE74FF48073EBE74FF48053E8E74FF468
:10078C008033E5E70800024000000240114AD368BC
:10079C0013F0100305D01049CB6943F00203CB6171
:1007AC001023D268500706D50B4943F00403CA69DD
:1007BC0042F00102CA61074AD169C90708D5064847
:1007CC00C16941F00401C161D16921F00101D1611C
:1007DC00D36070470020024080040020064B18694B
:1007EC0010F0800007D0054A5A6002F188325A6036
:1007FC001869C0F3C0107047002002402301674500
:10080C00034A0020136943F080031361704700BF53
:10081C000020024070B50546FFF7D6FE0646114C87
:10082C00E368D80712D4E368990644BF2023E36039
:10083C00E368DA0606D4E369DB0703D4E06810F05A
:10084C00040007D0FFF7A2FF012003E06B1CE7D0E8
:10085C000DB9032070BDFFF7B7FE801BA842DFD98E
:10086C00F7E700BF002002402DE9F84FDFF894A015
:10087C001F469AF818300546012B884691463FD002
:10088C0001234CF250308AF81830FFF7C3FF90BBAD
:10089C00012D03D0022D14BF04250225002633465A
:1008AC00DFF864B03401C4F12001A4F1200207FA8E
:1008BC0001F129FA04F4CAF81C300C4327FA02F2AD
:1008CC001443DBF81020A4B242F00102CBF8102044
:1008DC004CF2503028F81640FFF79CFFDBF8102044
:1008EC0022F00102CBF8102028B90136F2B2954261
:1008FC004FF00003D6D800238AF81830BDE8F88FE3
:10090C000220FBE780040020002002400022064B5E
:10091C00DA61064B1A6942F002021A6158611A69CF
:10092C0042F040021A61704780040020002002400F
:10093C002DE9F041264F05463B7E8846012B44D0DD
:10094C0001243C7603684CF25030022B1AD1FFF78D
:10095C0061FF20B1012000233B76BDE8F0811D4CE6
:10096C00F86123694CF2503043F00403236123698E
:10097C0043F040032361FFF74DFF236923F0040389
:10098C002361E8E7FFF746FF0028E3D14FF0FF3380
:10099C00C8F800302046AE680E4CD5E9023203EBA5
:1009AC008223B342D7D93046FFF7B0FF4CF2503018
:1009BC00FFF730FF236923F00203236110B1C8F85D
:1009CC000060C8E706F58066E7E70220C5E700BFD0
:1009DC0080040020002002402DE9F74F00224FF048
:1009EC000F0E1646DFF878C15E4B00F104080D6857
:1009FC0035FA06F402D103B0BDE8F08F012404FAF5
:100A0C0006F705EA070437EA050572D14D68032D90
:100A1C0006D8013D022D7FD8DFE805F08F949A00AF
:100A2C00122D00F0928066D8112D00F08880FF2CDA
:100A3C0094BF8146C1464FEA8605D9F8007088BF3D
:100A4C00203D0EFA05FA27EA0A0702FA05F52F43AC
:100A5C00C9F80070D1F8049019F0805F49D0DCF827
:100A6C00185026F0030745F00105CCF81850DCF8B7
:100A7C00185007F1804705F00105019507F58037FF
:100A8C0006F0030A019D4FEA8A0ABD680EFA0AFBBA
:100A9C0025EA0B0B344DA8425ED005F58065A842C3
:100AAC005CD005F58065A84214BF0325022505FA24
:100ABC000AF545EA0B05BD609D6819F4801F14BF4B
:100ACC002543A5439D60DD6819F4001F14BF254321
:100ADC00A543DD605D6819F4003F14BF2543A543B1
:100AEC005D601D6819F4803F14BF2C4325EA040493
:100AFC001C6001367BE7DFF874904D450CD015D89F
:100B0C00A9F580194D4507D009F570294D4503D03D
:100B1C00A9F580194D458AD18A68DAB1012A08BF36
:100B2C0007614FF0080218BF476180E7DFF840907B
:100B3C004D45F1D009F58039ECE7CA6877E7CA680A
:100B4C00043274E7CA68083271E7CA680C326EE77F
:100B5C0000226CE704226AE70025A8E70125A6E736
:100B6C000010024000040140000801400000221067
:100B7C00000031108368194214BF01200020704717
:100B8C000AB1016170470904FBE7C36801EA03027B
:100B9C0021EA030141EA02410161704770B5FFF798
:100BAC0013FD05462F4C236843F001032360236893
:100BBC009B073BD5236841F2883623F0F80343F0BA
:100BCC0080032360FFF700FD002305466360636824
:100BDC0013F00C0F32D1244B244A1A60244B1868A2
:100BEC00FFF7B0FC054600283AD1FFF7EDFC0646AE
:100BFC00236823F080732360236813F0007323D1E0
:100C0C006360FFF7E1FC0646236823F4102323609E
:100C1C00236813F400331DD1226822F48022226051
:100C2C00626A42F080726262A36005E0FFF7CCFC5E
:100C3C00401B0228BBD90325284670BDFFF7C4FC16
:100C4C00401BB042C3D9F6E7FFF7BEFC801B02285D
:100C5C00D2D9F0E7FFF7B8FC801B6428D8D9EAE7B3
:100C6C000125E9E7001002400000002000127A0084
:100C7C00080000202DE9F341054638B30368DB0773
:100C8C0010D42B689F075ED42B68190700F1958050
:100C9C002B685A0700F1C180EB69002B40F02C81C6
:100CAC00002029E0904C636803F00C03042B07D060
:100CBC00636803F00C03082B0AD16368DE0307D5C5
:100CCC0023689C03DDD56B68002BDAD1012013E07F
:100CDC006B68B3F5803F12D1236843F480332360F3
:100CEC00FFF772FC064623689803CAD4FFF76CFC26
:100CFC00801B6428F7D9032002B0BDE8F0819BB9B2
:100D0C00236823F480332360236823F48023236037
:100D1C00FFF75AFC064623689903B2D5FFF754FC3B
:100D2C00801B6428F7D9E6E7B3F5A02F236803D11D
:100D3C0043F480232360CFE723F4803323602368BC
:100D4C0023F48023CBE7684C636813F00C0F07D0B7
:100D5C00636803F00C03082B10D16368DA030DD41D
:100D6C0023689B0702D52B69012BAFD123686A69D5
:100D7C0023F0F80343EAC203236085E72A695B4B3F
:100D8C006AB101221A60FFF71FFC064623689F0711
:100D9C00ECD4FFF719FC801B0228F7D9ABE71A60DB
:100DAC00FFF712FC0646236898077FF56DAFFFF737
:100DBC000BFC801B0228F6D99DE7AA694A4E4B4BC7
:100DCC00E2B10122C3F88024FFF7FEFB0446736AEC
:100DDC009B070DD54FF4FA52454B1B68B3FBF2F34E
:100DEC00019300BF019B5A1E0192002BF9D14FE7D2
:100DFC00FFF7EAFB001B0228E9D97CE7C3F8802443
:100E0C00FFF7E2FB0446736A9F077FF541AFFFF7DC
:100E1C00DBFB001B0228F6D96DE7334CE369D800E5
:100E2C0024D40127E36943F08053E361E36903F0C1
:100E3C0080530093009B2F4E3368D90518D5EB686F
:100E4C00012B26D1236A43F001032362FFF7BCFB7D
:100E5C0041F288380646236A9B073FD5002F3FF4A2
:100E6C001BAFE36923F08053E36115E70027E2E74A
:100E7C00336843F480733360FFF7A6FB8046336816
:100E8C00DA05DCD4FFF7A0FBA0EB08006428F6D948
:100E9C0031E7ABB9236A41F2883823F001032362AE
:100EAC00236A23F004032362FFF78EFB0646236AB2
:100EBC009807D3D5FFF788FB801B4045F7D91AE775
:100ECC00052B236A03D143F004032362BAE723F012
:100EDC0001032362236A23F00403B6E7FFF774FBD4
:100EEC00801B4045B7D906E7001002400000424283
:100EFC0000000020007000402A4C626802F00C02D6
:100F0C00082A3ED00022022B274B1A662CD1FFF761
:100F1C005BFB06462368990120D42B6AB3F5803F0E
:100F2C0005D16268A96822F400320A436260696ADA
:100F3C0062680B4322F474121343012263601A4B50
:100F4C001A66FFF741FB054623689A013FF5A8AEE8
:100F5C00FFF73AFB401B0228F6D9CCE6FFF734FB2F
:100F6C00801B0228D6D9C6E6FFF72EFB0546236860
:100F7C009B017FF595AEFFF727FB401B0228F6D9A6
:100F8C00B9E6012B3FF4A2AE60682B6A00F4803204
:100F9C009A427FF49BAE6B6A00F47010C01A18BFB3
:100FAC000120A9E600100240000042420D4A53689D
:100FBC0003F00C01082912D10B48C3F38341DB0366
:100FCC00405C09D55368094AC3F340435043084A6F
:100FDC00D35CB0FBF3F07047064B584370470348A3
:100FEC00704700BF001002405618000800127A002B
:100FFC005418000800093D002DE9F0410D46044647
:10100C0010B90120BDE8F081444A136803F00703CE
:10101C008B4228D321688E0730D4CA0743D43F4A69
:10102C00136803F00703AB4265D822683C4D12F0FD
:10103C00040F6CD1130706D56B68226923F4605337
:10104C0043EAC2036B60FFF7B1FF6B68354AC3F329
:10105C000313D35CD840344B1860344B1868FFF73B
:10106C0071FA0020CEE7136823F007030B431360DB
:10107C00136803F007038B42C3D1CBE7284B11F065
:10108C00040F1EBF5A6842F4E0625A60080742BF60
:10109C005A6842F460525A605A68A06822F0F00212
:1010AC0002435A60B9E762681D4E012A33681AD1AF
:1010BC0013F4003FA5D0736841F2883823F0030382
:1010CC0013437360FFF780FA07467368626803F096
:1010DC000C03B3EB820FA2D0FFF776FAC01B40458E
:1010EC00F3D903208EE7022A02D113F0007FE1E747
:1010FC0013F0020FDEE7136823F007032B43136092
:10110C00136803F00703AB427FF47BAF8DE76B688A
:10111C00E16823F4E0630B436B608BE70020024033
:10112C0000100240441800080000002008000020B5
:10113C00044B054A5B68C3F30223D35C034A106873
:10114C00D8407047001002403C18000800000020F6
:10115C00044B054A5B68C3F3C223D35C034A106893
:10116C00D8407047001002403C18000800000020D6
:10117C00026802F10C0353E8003F23F490730C3225
:10118C0042E8003102680029F2D102F1140353E85D
:10119C00003F23F0010302F1140C4CE8003100294C
:1011AC00F3D1036B012B0BD102F10C0353E8003F7D
:1011BC0023F0100302F10C0C4CE800310029F3D1A0
:1011CC00202380F8423000230363704710B5044697
:1011DC000368C1681A6922F440520A431A61826892
:1011EC000069D9680243606921F4B05121F00C0107
:1011FC0002430A43DA605A69A16922F440720A4335
:10120C005A610E4A934215D1FFF7A2FF19234343AB
:10121C00626820689200B3FBF2F36422B3FBF2F134
:10122C0002FB11331B013233B3FBF2F303EB01135B
:10123C00836010BDFFF77CFFE8E700BF003801407A
:10124C00F7B505460C4617461E462A68136834EA5D
:10125C00030301D1002021E0701CF7D0FFF7B4F993
:10126C00C01B86421CD3DEB12B68DA685107ECD563
:10127C00802CEAD0402CE8D01A681207E5D500245F
:10128C0001941A68284601925B680193019BFFF751
:10129C006FFF082301206B6485F8404003B0F0BD5C
:1012AC000320FBE710B5044648B390F8413003F037
:1012BC00FF021BB980F84020FFF7B8F824232268FE
:1012CC0084F84130D368204623F40053D360FFF7F1
:1012DC007DFF236800201A6922F490421A615A6932
:1012EC0022F02A025A61DA6842F40052DA602023B2
:1012FC00606484F8413084F84230606310BD012092
:10130C00FCE72DE9F843984690F841300446202B31
:10131C000E4617463FD100293FD0002A3DD021234D
:10132C000025456480F84130FFF74EF9A3688146EB
:10133C00B3F5805FA784E78403D123690BB93546E5
:10134C001E46E38C9BB253B943464A464021204685
:10135C00FFF776FF202350B984F841300AE043466A
:10136C004A4680212046FFF76BFF28B1202303203B
:10137C0084F84130BDE8F88322684EB935F8023B59
:10138C00C3F308035360E18C013989B2E184D8E7D7
:10139C0016F8013BF6E70220ECE70120EAE72DE91D
:1013AC00F8431F4690F842300446202B0E469146D7
:1013BC0048D1002948D0002A46D022230025456474
:1013CC0080F842300563FFF7FFF8A3688046B3F559
:1013DC00805FA4F82C90A4F82E9003D123690BB94C
:1013EC0035461E46E08D80B218B9202384F8423071
:1013FC000AE03B46424620212046FFF721FF28B158
:10140C002023032084F84230BDE8F88323684EB9CA
:10141C005B68C3F3080325F8023BE38D013B9BB2E9
:10142C00E385DFE7A268B2F5805F02D032B92269AA
:10143C0022B95968C9B206F8011BEEE7596801F0E8
:10144C007F01F8E70220DFE70120DDE770477047F6
:10145C00704708B50023406AC385C384FFF7F8FFC3
:10146C0008BD704790F8423007B5222B42D18168F5
:10147C000268B1F5805F836A3FD1016900293FD1D1
:10148C005268C2F3080223F8022B8362C38D013B1E
:10149C009BB2C385002B2DD10268D16821F02001AD
:1014AC00D160D16821F48071D160516921F00101C2
:1014BC005161202280F842204363026B012A0268AA
:1014CC0028D1036302F10C0353E8003F23F010030F
:1014DC0002F10C0C4CE800310029F3D11368DB0647
:1014EC0005D501911368019353680193019B818D7C
:1014FC00FFF7B7FF03B05DF804FB39B9016929B9EF
:10150C005268D2B21A70836A0133BEE7526802F095
:10151C007F02F7E7FFF79BFFECE70000036873B56A
:10152C001A6804461607D9685D6908D1960668D50D
:10153C008D0666D502B0BDE87040FFF793BF05F08D
:10154C00010001F4907505435BD0D60705D5CD0598
:10155C0042BF636C43F001036364530704D518B1B5
:10156C00636C43F002036364960704D518B1636C93
:10157C0043F004036364150707D501F0200303430C
:10158C001EBF636C43F008036364636C002B32D0A2
:10159C00920604D58B0602D52046FFF763FF26681A
:1015AC0020467369626C03F0400302F0080253EAB0
:1015BC00020522D0FFF7DCFD73695E0618D52268A0
:1015CC0002F1140353E8003F23F04003143242E8C5
:1015DC0000310029F3D1E06B50B1744B4363FFF73A
:1015EC008FF840B1E06B436B02B0BDE87040184718
:1015FC002046FFF72DFF02B070BDFFF729FF656491
:10160C00F9E7206B012840F09480D50640F19180D9
:10161C00C80640F18E80002201921A6801925A6825
:10162C000192019A5A6952064DD5E16B0A685268CB
:10163C0092B2002ADFD0A08D9042DCD9E2858A6973
:10164C00202A36D003F10C0252E8002F22F48072CB
:10165C0003F10C0040E800210029F3D103F114023E
:10166C0052E8002F22F0010203F1140040E800219F
:10167C000029F3D103F1140252E8002F22F04002AA
:10168C0003F1140040E800210029F3D1202284F852
:10169C004220216303F10C0252E8002F22F01002C9
:1016AC0003F10C0040E800210029F3D1E06BFFF7B7
:1016BC0007F802236363E38DA18DC91A89B2204612
:1016CC00FFF7CFFE97E7E28DE08DA18D80B292B24D
:1016DC00002890D0891A89B200298CD003F10C0211
:1016EC0052E8002F22F4907203F10C0545E800201B
:1016FC000028F3D103F1140252E8002F22F001026A
:10170C0003F1140545E800200028F3D1202284F8C9
:10171C004220206303F10C0252E8002F22F0100249
:10172C0003F10C0545E800200028F3D10223636384
:10173C00C5E7160628D50D0626D594F84120212A92
:10174C007FF459AFA168226AB1F5805F17D1216986
:10175C00A9B932F8021BC1F3080159602262E28C6C
:10176C00013A92B2E284002A7FF445AFDA6822F0A3
:10177C008002DA60DA6842F04002DA603BE7511C22
:10178C00216212785A60EAE750067FF534AF4A06B8
:10179C007FF531AFDA68204622F04002DA60202370
:1017AC0084F84130FFF752FE25E700BF5F140008B4
:1017BC0003460244934200D1704703F8011BF9E73A
:1017CC0070B500260C4D0D4C641BA410A64209D11B
:1017DC0000F01AF800260A4D0A4C641BA410A6420D
:1017EC0005D170BD55F8043B98470136EEE755F826
:1017FC00043B98470136F2E770180008701800088F
:10180C007018000874180008F8B500BFF8BC08BCC4
:10181C009E467047F8B500BFF8BC08BC9E467047A2
:10182C0053656E645F410D0053656E645F420D003D
:10183C000000000001020304000000000000000092
:10184C000102030406070809010202030405060746
:0C185C0008090A0B0C0D0E0F1010000004
:08186800E4E8FF7F010000002D
:04187000310100083A
:041874000D0100085A
:0C18780000127A000100000010000000C7
:04000005080004E506
:00000001FF
